{
  "_format": "hh-sol-artifact-1",
  "contractName": "SRI",
  "sourceName": "contracts/SRI.sol",
  "abi": [
    {
      "inputs": [
        {
          "internalType": "address",
          "name": "tokenToStake",
          "type": "address"
        },
        {
          "internalType": "address",
          "name": "devFee",
          "type": "address"
        },
        {
          "internalType": "address",
          "name": "lpAddress",
          "type": "address"
        }
      ],
      "stateMutability": "nonpayable",
      "type": "constructor"
    },
    {
      "anonymous": false,
      "inputs": [
        {
          "indexed": true,
          "internalType": "address",
          "name": "user",
          "type": "address"
        },
        {
          "indexed": false,
          "internalType": "uint256",
          "name": "amount",
          "type": "uint256"
        }
      ],
      "name": "Compounded",
      "type": "event"
    },
    {
      "anonymous": false,
      "inputs": [
        {
          "indexed": false,
          "internalType": "address",
          "name": "owner",
          "type": "address"
        }
      ],
      "name": "OwnershipTransferred",
      "type": "event"
    },
    {
      "anonymous": false,
      "inputs": [
        {
          "indexed": true,
          "internalType": "address",
          "name": "user",
          "type": "address"
        },
        {
          "indexed": false,
          "internalType": "uint256",
          "name": "reward",
          "type": "uint256"
        }
      ],
      "name": "RewardClaimed",
      "type": "event"
    },
    {
      "anonymous": false,
      "inputs": [
        {
          "indexed": true,
          "internalType": "address",
          "name": "user",
          "type": "address"
        },
        {
          "indexed": false,
          "internalType": "uint256",
          "name": "amount",
          "type": "uint256"
        }
      ],
      "name": "TokenStaked",
      "type": "event"
    },
    {
      "anonymous": false,
      "inputs": [
        {
          "indexed": true,
          "internalType": "address",
          "name": "user",
          "type": "address"
        },
        {
          "indexed": false,
          "internalType": "uint256",
          "name": "amount",
          "type": "uint256"
        },
        {
          "indexed": false,
          "internalType": "uint256",
          "name": "reward",
          "type": "uint256"
        }
      ],
      "name": "TokenUnstaked",
      "type": "event"
    },
    {
      "inputs": [],
      "name": "DEAD",
      "outputs": [
        {
          "internalType": "address",
          "name": "",
          "type": "address"
        }
      ],
      "stateMutability": "view",
      "type": "function"
    },
    {
      "inputs": [],
      "name": "aprDenominator",
      "outputs": [
        {
          "internalType": "uint256",
          "name": "",
          "type": "uint256"
        }
      ],
      "stateMutability": "view",
      "type": "function"
    },
    {
      "inputs": [],
      "name": "aprNumerator",
      "outputs": [
        {
          "internalType": "uint256",
          "name": "",
          "type": "uint256"
        }
      ],
      "stateMutability": "view",
      "type": "function"
    },
    {
      "inputs": [
        {
          "internalType": "address",
          "name": "adr",
          "type": "address"
        }
      ],
      "name": "authorize",
      "outputs": [],
      "stateMutability": "nonpayable",
      "type": "function"
    },
    {
      "inputs": [],
      "name": "availableRewardTokens",
      "outputs": [
        {
          "internalType": "uint256",
          "name": "",
          "type": "uint256"
        }
      ],
      "stateMutability": "view",
      "type": "function"
    },
    {
      "inputs": [],
      "name": "burnFeeDenominator",
      "outputs": [
        {
          "internalType": "uint256",
          "name": "",
          "type": "uint256"
        }
      ],
      "stateMutability": "view",
      "type": "function"
    },
    {
      "inputs": [],
      "name": "burnFeeNumerator",
      "outputs": [
        {
          "internalType": "uint256",
          "name": "",
          "type": "uint256"
        }
      ],
      "stateMutability": "view",
      "type": "function"
    },
    {
      "inputs": [
        {
          "internalType": "uint256",
          "name": "amount",
          "type": "uint256"
        },
        {
          "internalType": "uint256",
          "name": "num",
          "type": "uint256"
        },
        {
          "internalType": "uint256",
          "name": "den",
          "type": "uint256"
        }
      ],
      "name": "calcFee",
      "outputs": [
        {
          "internalType": "uint256",
          "name": "",
          "type": "uint256"
        }
      ],
      "stateMutability": "pure",
      "type": "function"
    },
    {
      "inputs": [],
      "name": "claim",
      "outputs": [],
      "stateMutability": "nonpayable",
      "type": "function"
    },
    {
      "inputs": [],
      "name": "compound",
      "outputs": [],
      "stateMutability": "nonpayable",
      "type": "function"
    },
    {
      "inputs": [],
      "name": "devFeeDenominator",
      "outputs": [
        {
          "internalType": "uint256",
          "name": "",
          "type": "uint256"
        }
      ],
      "stateMutability": "view",
      "type": "function"
    },
    {
      "inputs": [],
      "name": "devFeeNumerator",
      "outputs": [
        {
          "internalType": "uint256",
          "name": "",
          "type": "uint256"
        }
      ],
      "stateMutability": "view",
      "type": "function"
    },
    {
      "inputs": [],
      "name": "devFeeReceiver",
      "outputs": [
        {
          "internalType": "address",
          "name": "",
          "type": "address"
        }
      ],
      "stateMutability": "view",
      "type": "function"
    },
    {
      "inputs": [
        {
          "internalType": "address",
          "name": "staker",
          "type": "address"
        }
      ],
      "name": "forceUnstakeAll",
      "outputs": [],
      "stateMutability": "nonpayable",
      "type": "function"
    },
    {
      "inputs": [],
      "name": "getAPR",
      "outputs": [
        {
          "internalType": "uint256",
          "name": "numerator",
          "type": "uint256"
        },
        {
          "internalType": "uint256",
          "name": "denominator",
          "type": "uint256"
        }
      ],
      "stateMutability": "view",
      "type": "function"
    },
    {
      "inputs": [
        {
          "internalType": "uint256",
          "name": "desiredDecimals",
          "type": "uint256"
        }
      ],
      "name": "getAPRPercentage",
      "outputs": [
        {
          "internalType": "uint256",
          "name": "percentage",
          "type": "uint256"
        },
        {
          "internalType": "uint256",
          "name": "decimals",
          "type": "uint256"
        }
      ],
      "stateMutability": "view",
      "type": "function"
    },
    {
      "inputs": [],
      "name": "getAPRRoundedPercentage",
      "outputs": [
        {
          "internalType": "uint256",
          "name": "",
          "type": "uint256"
        }
      ],
      "stateMutability": "view",
      "type": "function"
    },
    {
      "inputs": [],
      "name": "getPendingReward",
      "outputs": [
        {
          "internalType": "uint256",
          "name": "",
          "type": "uint256"
        }
      ],
      "stateMutability": "view",
      "type": "function"
    },
    {
      "inputs": [
        {
          "internalType": "address",
          "name": "staker",
          "type": "address"
        }
      ],
      "name": "getStake",
      "outputs": [
        {
          "components": [
            {
              "internalType": "uint256",
              "name": "stakedAmount",
              "type": "uint256"
            },
            {
              "internalType": "uint32",
              "name": "since",
              "type": "uint32"
            },
            {
              "internalType": "uint32",
              "name": "lastUpdate",
              "type": "uint32"
            }
          ],
          "internalType": "struct SRI.StakeState",
          "name": "",
          "type": "tuple"
        }
      ],
      "stateMutability": "view",
      "type": "function"
    },
    {
      "inputs": [
        {
          "internalType": "address",
          "name": "adr",
          "type": "address"
        }
      ],
      "name": "isAuthorized",
      "outputs": [
        {
          "internalType": "bool",
          "name": "",
          "type": "bool"
        }
      ],
      "stateMutability": "view",
      "type": "function"
    },
    {
      "inputs": [
        {
          "internalType": "address",
          "name": "account",
          "type": "address"
        }
      ],
      "name": "isOwner",
      "outputs": [
        {
          "internalType": "bool",
          "name": "",
          "type": "bool"
        }
      ],
      "stateMutability": "view",
      "type": "function"
    },
    {
      "inputs": [],
      "name": "lpFeeDenominator",
      "outputs": [
        {
          "internalType": "uint256",
          "name": "",
          "type": "uint256"
        }
      ],
      "stateMutability": "view",
      "type": "function"
    },
    {
      "inputs": [],
      "name": "lpFeeNumerator",
      "outputs": [
        {
          "internalType": "uint256",
          "name": "",
          "type": "uint256"
        }
      ],
      "stateMutability": "view",
      "type": "function"
    },
    {
      "inputs": [],
      "name": "lpFeeReceiver",
      "outputs": [
        {
          "internalType": "address",
          "name": "",
          "type": "address"
        }
      ],
      "stateMutability": "view",
      "type": "function"
    },
    {
      "inputs": [
        {
          "internalType": "address",
          "name": "staker",
          "type": "address"
        }
      ],
      "name": "pendingReward",
      "outputs": [
        {
          "internalType": "uint256",
          "name": "",
          "type": "uint256"
        }
      ],
      "stateMutability": "view",
      "type": "function"
    },
    {
      "inputs": [
        {
          "internalType": "uint256",
          "name": "numerator",
          "type": "uint256"
        }
      ],
      "name": "setBurnFeeNumerator",
      "outputs": [],
      "stateMutability": "nonpayable",
      "type": "function"
    },
    {
      "inputs": [
        {
          "internalType": "uint256",
          "name": "numerator",
          "type": "uint256"
        }
      ],
      "name": "setDevFeeNumerator",
      "outputs": [],
      "stateMutability": "nonpayable",
      "type": "function"
    },
    {
      "inputs": [
        {
          "internalType": "address",
          "name": "receiver",
          "type": "address"
        }
      ],
      "name": "setDevFeeReceiver",
      "outputs": [],
      "stateMutability": "nonpayable",
      "type": "function"
    },
    {
      "inputs": [
        {
          "internalType": "address",
          "name": "lp",
          "type": "address"
        }
      ],
      "name": "setLPAddress",
      "outputs": [],
      "stateMutability": "nonpayable",
      "type": "function"
    },
    {
      "inputs": [
        {
          "internalType": "uint256",
          "name": "numerator",
          "type": "uint256"
        }
      ],
      "name": "setLPFeeNumerator",
      "outputs": [],
      "stateMutability": "nonpayable",
      "type": "function"
    },
    {
      "inputs": [
        {
          "internalType": "address",
          "name": "newToken",
          "type": "address"
        }
      ],
      "name": "setStakingToken",
      "outputs": [],
      "stateMutability": "nonpayable",
      "type": "function"
    },
    {
      "inputs": [
        {
          "internalType": "uint256",
          "name": "amount",
          "type": "uint256"
        }
      ],
      "name": "stake",
      "outputs": [],
      "stateMutability": "nonpayable",
      "type": "function"
    },
    {
      "inputs": [],
      "name": "stakingToken",
      "outputs": [
        {
          "internalType": "address",
          "name": "",
          "type": "address"
        }
      ],
      "stateMutability": "view",
      "type": "function"
    },
    {
      "inputs": [],
      "name": "totalStakedTokens",
      "outputs": [
        {
          "internalType": "uint256",
          "name": "",
          "type": "uint256"
        }
      ],
      "stateMutability": "view",
      "type": "function"
    },
    {
      "inputs": [
        {
          "internalType": "address payable",
          "name": "adr",
          "type": "address"
        }
      ],
      "name": "transferOwnership",
      "outputs": [],
      "stateMutability": "nonpayable",
      "type": "function"
    },
    {
      "inputs": [
        {
          "internalType": "address",
          "name": "adr",
          "type": "address"
        }
      ],
      "name": "unauthorize",
      "outputs": [],
      "stateMutability": "nonpayable",
      "type": "function"
    },
    {
      "inputs": [
        {
          "internalType": "uint256",
          "name": "amount",
          "type": "uint256"
        }
      ],
      "name": "unstake",
      "outputs": [],
      "stateMutability": "nonpayable",
      "type": "function"
    },
    {
      "inputs": [],
      "name": "unstakeAll",
      "outputs": [],
      "stateMutability": "nonpayable",
      "type": "function"
    }
  ],
  "bytecode": "0x6080604052610e1060055561012c600655603260075560326008553480156200002757600080fd5b5060405162002bb538038062002bb583398181016040528101906200004d91906200021c565b33806000806101000a81548173ffffffffffffffffffffffffffffffffffffffff021916908373ffffffffffffffffffffffffffffffffffffffff16021790555060018060008373ffffffffffffffffffffffffffffffffffffffff1673ffffffffffffffffffffffffffffffffffffffff16815260200190815260200160002060006101000a81548160ff0219169083151502179055505082600260006101000a81548173ffffffffffffffffffffffffffffffffffffffff021916908373ffffffffffffffffffffffffffffffffffffffff16021790555081600360006101000a81548173ffffffffffffffffffffffffffffffffffffffff021916908373ffffffffffffffffffffffffffffffffffffffff16021790555080600460006101000a81548173ffffffffffffffffffffffffffffffffffffffff021916908373ffffffffffffffffffffffffffffffffffffffff16021790555050505062000278565b600080fd5b600073ffffffffffffffffffffffffffffffffffffffff82169050919050565b6000620001e482620001b7565b9050919050565b620001f681620001d7565b81146200020257600080fd5b50565b6000815190506200021681620001eb565b92915050565b600080600060608486031215620002385762000237620001b2565b5b6000620002488682870162000205565b93505060206200025b8682870162000205565b92505060406200026e8682870162000205565b9150509250925092565b61292d80620002886000396000f3fe608060405234801561001057600080fd5b50600436106102325760003560e01c80637a76646011610130578063b6a5d7de116100b8578063f0b37c041161007c578063f0b37c0414610623578063f2fde38b1461063f578063f40f0f521461065b578063f69e20461461068b578063fe9fbb801461069557610232565b8063b6a5d7de1461058e578063c18f4831146105aa578063c89d5b8b146105c8578063d76a144a146105e7578063dab84ee71461060557610232565b8063a0e59acd116100ff578063a0e59acd146104e9578063a694fc3a14610507578063adbdc5f714610523578063ae6bc9ee14610554578063aff25f301461057057610232565b80637a7664601461045f5780638176bc5f1461048f5780638498cc01146104ad5780639f94e272146104cb57610232565b806335322f37116101be57806356e1c40d1161018257806356e1c40d146103cd5780635a23248d146103eb57806372f702f3146104095780637537e161146104275780637a351a1d1461044357610232565b806335322f37146103615780633ae732591461036b5780633c47034e1461038957806347c30155146103a55780634e71d92d146103c357610232565b80631e9b12ef116102055780631e9b12ef146102c15780631f7d419c146102dd57806327b3e663146102f95780632e17de78146103155780632f54bf6e1461033157610232565b806303fd2a451461023757806304998e2d1461025557806309d2d0bc1461028557806315a361d2146102a3575b600080fd5b61023f6106c5565b60405161024c9190611e2f565b60405180910390f35b61026f600480360381019061026a9190611e85565b6106cb565b60405161027c9190611ee7565b60405180910390f35b61028d61071b565b60405161029a9190611e2f565b60405180910390f35b6102ab610741565b6040516102b89190611ee7565b60405180910390f35b6102db60048036038101906102d69190611f2e565b610747565b005b6102f760048036038101906102f29190611f5b565b610818565b005b610313600480360381019061030e9190611f5b565b6108c8565b005b61032f600480360381019061032a9190611f5b565b610978565b005b61034b60048036038101906103469190611f2e565b6109c8565b6040516103589190611fa3565b60405180910390f35b610369610a21565b005b610373610b62565b6040516103809190611ee7565b60405180910390f35b6103a3600480360381019061039e9190611f2e565b610b68565b005b6103ad610bf4565b6040516103ba9190611ee7565b60405180910390f35b6103cb610bfa565b005b6103d5610dc7565b6040516103e29190611ee7565b60405180910390f35b6103f3610dcd565b6040516104009190611ee7565b60405180910390f35b610411610ddd565b60405161041e9190611e2f565b60405180910390f35b610441600480360381019061043c9190611f2e565b610e03565b005b61045d60048036038101906104589190611f2e565b610f8d565b005b61047960048036038101906104749190611f2e565b611019565b604051610486919061202e565b60405180910390f35b6104976110c8565b6040516104a49190611ee7565b60405180910390f35b6104b56110ce565b6040516104c29190611ee7565b60405180910390f35b6104d36110f1565b6040516104e09190611ee7565b60405180910390f35b6104f16111ba565b6040516104fe9190611ee7565b60405180910390f35b610521600480360381019061051c9190611f5b565b6111c0565b005b61053d60048036038101906105389190611f5b565b6113ec565b60405161054b929190612049565b60405180910390f35b61056e60048036038101906105699190611f5b565b61144e565b005b6105786114fe565b6040516105859190611ee7565b60405180910390f35b6105a860048036038101906105a39190611f2e565b611504565b005b6105b26115a6565b6040516105bf9190611ee7565b60405180910390f35b6105d06115ac565b6040516105de929190612049565b60405180910390f35b6105ef6115bd565b6040516105fc9190611ee7565b60405180910390f35b61060d6115c3565b60405161061a9190611e2f565b60405180910390f35b61063d60048036038101906106389190611f2e565b6115e9565b005b610659600480360381019061065491906120b0565b61168c565b005b61067560048036038101906106709190611f2e565b6117a5565b6040516106829190611ee7565b60405180910390f35b6106936118b3565b005b6106af60048036038101906106aa9190611f2e565b6118be565b6040516106bc9190611fa3565b60405180910390f35b61dead81565b60008084036106dd5760009050610714565b60008314806106ec5750600082145b156106fa5760009050610714565b818385610707919061210c565b610711919061217d565b90505b9392505050565b600460009054906101000a900473ffffffffffffffffffffffffffffffffffffffff1681565b61271081565b610750336118be565b61078f576040517f08c379a00000000000000000000000000000000000000000000000000000000081526004016107869061220b565b60405180910390fd5b6000600954146107d4576040517f08c379a00000000000000000000000000000000000000000000000000000000081526004016107cb9061229d565b60405180910390fd5b80600260006101000a81548173ffffffffffffffffffffffffffffffffffffffff021916908373ffffffffffffffffffffffffffffffffffffffff16021790555050565b610821336118be565b610860576040517f08c379a00000000000000000000000000000000000000000000000000000000081526004016108579061220b565b60405180910390fd5b610d056007546006548361087491906122bd565b61087e91906122bd565b106108be576040517f08c379a00000000000000000000000000000000000000000000000000000000081526004016108b590612363565b60405180910390fd5b8060088190555050565b6108d1336118be565b610910576040517f08c379a00000000000000000000000000000000000000000000000000000000081526004016109079061220b565b60405180910390fd5b610d056007546008548361092491906122bd565b61092e91906122bd565b1061096e576040517f08c379a000000000000000000000000000000000000000000000000000000000815260040161096590612363565b60405180910390fd5b8060068190555050565b600081116109bb576040517f08c379a00000000000000000000000000000000000000000000000000000000081526004016109b2906123cf565b60405180910390fd5b6109c53382611914565b50565b60008060009054906101000a900473ffffffffffffffffffffffffffffffffffffffff1673ffffffffffffffffffffffffffffffffffffffff168273ffffffffffffffffffffffffffffffffffffffff16149050919050565b6000600a60003373ffffffffffffffffffffffffffffffffffffffff1673ffffffffffffffffffffffffffffffffffffffff168152602001908152602001600020905060008160010160009054906101000a900463ffffffff1663ffffffff1611610ac1576040517f08c379a0000000000000000000000000000000000000000000000000000000008152600401610ab89061243b565b60405180910390fd5b6000816000015411610b08576040517f08c379a0000000000000000000000000000000000000000000000000000000008152600401610aff9061243b565b60405180910390fd5b60008160000154905060008111610b54576040517f08c379a0000000000000000000000000000000000000000000000000000000008152600401610b4b9061243b565b60405180910390fd5b610b5e3382611914565b5050565b60095481565b610b71336118be565b610bb0576040517f08c379a0000000000000000000000000000000000000000000000000000000008152600401610ba79061220b565b60405180910390fd5b80600360006101000a81548173ffffffffffffffffffffffffffffffffffffffff021916908373ffffffffffffffffffffffffffffffffffffffff16021790555050565b60085481565b6000600a60003373ffffffffffffffffffffffffffffffffffffffff1673ffffffffffffffffffffffffffffffffffffffff168152602001908152602001600020905060008160010160009054906101000a900463ffffffff1663ffffffff1611610c9a576040517f08c379a0000000000000000000000000000000000000000000000000000000008152600401610c919061243b565b60405180910390fd5b6000610ca5336117a5565b90506000811115610dc357600260009054906101000a900473ffffffffffffffffffffffffffffffffffffffff1673ffffffffffffffffffffffffffffffffffffffff1663a9059cbb33836040518363ffffffff1660e01b8152600401610d0d92919061245b565b6020604051808303816000875af1158015610d2c573d6000803e3d6000fd5b505050506040513d601f19601f82011682018060405250810190610d5091906124b0565b50428260010160046101000a81548163ffffffff021916908363ffffffff1602179055503373ffffffffffffffffffffffffffffffffffffffff167f106f923f993c2149d49b4255ff723acafa1f2d94393f561d3eda32ae348f724182604051610dba9190611ee7565b60405180910390a25b5050565b60065481565b6000610dd8336117a5565b905090565b600260009054906101000a900473ffffffffffffffffffffffffffffffffffffffff1681565b610e0c336118be565b610e4b576040517f08c379a0000000000000000000000000000000000000000000000000000000008152600401610e429061220b565b60405180910390fd5b6000600a60008373ffffffffffffffffffffffffffffffffffffffff1673ffffffffffffffffffffffffffffffffffffffff168152602001908152602001600020905060008160010160009054906101000a900463ffffffff1663ffffffff1611610eeb576040517f08c379a0000000000000000000000000000000000000000000000000000000008152600401610ee290612529565b60405180910390fd5b6000816000015411610f32576040517f08c379a0000000000000000000000000000000000000000000000000000000008152600401610f2990612529565b60405180910390fd5b60008160000154905060008111610f7e576040517f08c379a0000000000000000000000000000000000000000000000000000000008152600401610f7590612529565b60405180910390fd5b610f888382611914565b505050565b610f96336118be565b610fd5576040517f08c379a0000000000000000000000000000000000000000000000000000000008152600401610fcc9061220b565b60405180910390fd5b80600460006101000a81548173ffffffffffffffffffffffffffffffffffffffff021916908373ffffffffffffffffffffffffffffffffffffffff16021790555050565b611021611dc1565b600a60008373ffffffffffffffffffffffffffffffffffffffff1673ffffffffffffffffffffffffffffffffffffffff168152602001908152602001600020604051806060016040529081600082015481526020016001820160009054906101000a900463ffffffff1663ffffffff1663ffffffff1681526020016001820160049054906101000a900463ffffffff1663ffffffff1663ffffffff16815250509050919050565b60075481565b600061271060055460646110e2919061210c565b6110ec919061217d565b905090565b600080600260009054906101000a900473ffffffffffffffffffffffffffffffffffffffff1673ffffffffffffffffffffffffffffffffffffffff166370a08231306040518263ffffffff1660e01b815260040161114f9190611e2f565b602060405180830381865afa15801561116c573d6000803e3d6000fd5b505050506040513d601f19601f82011682018060405250810190611190919061255e565b905060095481116111a55760009150506111b7565b600954816111b3919061258b565b9150505b90565b61271081565b60008111611203576040517f08c379a00000000000000000000000000000000000000000000000000000000081526004016111fa906123cf565b60405180910390fd5b6000600a60003373ffffffffffffffffffffffffffffffffffffffff1673ffffffffffffffffffffffffffffffffffffffff1681526020019081526020016000209050600042905060008260010160009054906101000a900463ffffffff1663ffffffff160361129557808260010160006101000a81548163ffffffff021916908363ffffffff16021790555061129f565b61129e33611b5b565b5b808260010160046101000a81548163ffffffff021916908363ffffffff160217905550828260000160008282546112d691906122bd565b9250508190555082600960008282546112ef91906122bd565b92505081905550600260009054906101000a900473ffffffffffffffffffffffffffffffffffffffff1673ffffffffffffffffffffffffffffffffffffffff166323b872dd3330866040518463ffffffff1660e01b8152600401611355939291906125bf565b6020604051808303816000875af1158015611374573d6000803e3d6000fd5b505050506040513d601f19601f8201168201806040525081019061139891906124b0565b503373ffffffffffffffffffffffffffffffffffffffff167f1fdab8a8457aaf782e4b6217d6ffa6f5006eda7e50922dd092b2e1524275d774846040516113df9190611ee7565b60405180910390a2505050565b600080600083600a6113fe9190612729565b90506000612710600554836064611415919061210c565b61141f919061210c565b611429919061217d565b90508181611437919061217d565b82826114439190612774565b935093505050915091565b611457336118be565b611496576040517f08c379a000000000000000000000000000000000000000000000000000000000815260040161148d9061220b565b60405180910390fd5b610d05600654600854836114aa91906122bd565b6114b491906122bd565b106114f4576040517f08c379a00000000000000000000000000000000000000000000000000000000081526004016114eb90612363565b60405180910390fd5b8060078190555050565b60055481565b61150d336109c8565b61154c576040517f08c379a0000000000000000000000000000000000000000000000000000000008152600401611543906127f1565b60405180910390fd5b60018060008373ffffffffffffffffffffffffffffffffffffffff1673ffffffffffffffffffffffffffffffffffffffff16815260200190815260200160002060006101000a81548160ff02191690831515021790555050565b61271081565b600080600554612710915091509091565b61271081565b600360009054906101000a900473ffffffffffffffffffffffffffffffffffffffff1681565b6115f2336109c8565b611631576040517f08c379a0000000000000000000000000000000000000000000000000000000008152600401611628906127f1565b60405180910390fd5b6000600160008373ffffffffffffffffffffffffffffffffffffffff1673ffffffffffffffffffffffffffffffffffffffff16815260200190815260200160002060006101000a81548160ff02191690831515021790555050565b611695336109c8565b6116d4576040517f08c379a00000000000000000000000000000000000000000000000000000000081526004016116cb906127f1565b60405180910390fd5b806000806101000a81548173ffffffffffffffffffffffffffffffffffffffff021916908373ffffffffffffffffffffffffffffffffffffffff16021790555060018060008373ffffffffffffffffffffffffffffffffffffffff1673ffffffffffffffffffffffffffffffffffffffff16815260200190815260200160002060006101000a81548160ff0219169083151502179055507f04dba622d284ed0014ee4b9a6a68386be1a4c08a4913ae272de89199cc6861638160405161179a9190612870565b60405180910390a150565b600080600a60008473ffffffffffffffffffffffffffffffffffffffff1673ffffffffffffffffffffffffffffffffffffffff168152602001908152602001600020905060008160010160009054906101000a900463ffffffff1663ffffffff16036118155760009150506118ae565b8060010160049054906101000a900463ffffffff1663ffffffff1642116118405760009150506118ae565b60008160010160049054906101000a900463ffffffff1663ffffffff1642611868919061258b565b905060006127106005548460000154611881919061210c565b61188b919061217d565b90506301e13380828261189e919061210c565b6118a8919061217d565b93505050505b919050565b6118bc33611b5b565b565b6000600160008373ffffffffffffffffffffffffffffffffffffffff1673ffffffffffffffffffffffffffffffffffffffff16815260200190815260200160002060009054906101000a900460ff169050919050565b6000600a60008473ffffffffffffffffffffffffffffffffffffffff1673ffffffffffffffffffffffffffffffffffffffff1681526020019081526020016000209050818160000154101561199e576040517f08c379a0000000000000000000000000000000000000000000000000000000008152600401611995906128d7565b60405180910390fd5b60006119a9846117a5565b9050600081846119b991906122bd565b905060006119c682611c5f565b905060006119d383611c7a565b905060006119e084611cb5565b90506000818385876119f2919061258b565b6119fc919061258b565b611a06919061258b565b905087876000016000828254611a1c919061258b565b925050819055508760096000828254611a35919061258b565b92505081905550428760010160046101000a81548163ffffffff021916908363ffffffff160217905550600260009054906101000a900473ffffffffffffffffffffffffffffffffffffffff1673ffffffffffffffffffffffffffffffffffffffff1663a9059cbb8a836040518363ffffffff1660e01b8152600401611abc92919061245b565b6020604051808303816000875af1158015611adb573d6000803e3d6000fd5b505050506040513d601f19601f82011682018060405250810190611aff91906124b0565b508873ffffffffffffffffffffffffffffffffffffffff167f563fc70fca9d440d883299c76a721644d5aca7c45df98aeb5292c4cb823579bf8288604051611b48929190612049565b60405180910390a2505050505050505050565b6000600a60008373ffffffffffffffffffffffffffffffffffffffff1673ffffffffffffffffffffffffffffffffffffffff16815260200190815260200160002090506000611ba9836117a5565b90506000811115611c5a57428260010160046101000a81548163ffffffff021916908363ffffffff16021790555080826000016000828254611beb91906122bd565b925050819055508060096000828254611c0491906122bd565b925050819055508273ffffffffffffffffffffffffffffffffffffffff167fc16de066392da7e40ceccb739c331fc48a2e76bf147449613c48023d960eec3282604051611c519190611ee7565b60405180910390a25b505050565b6000611c738260065461271061dead611cf0565b9050919050565b6000611cae82600754612710600360009054906101000a900473ffffffffffffffffffffffffffffffffffffffff16611cf0565b9050919050565b6000611ce982600854612710600460009054906101000a900473ffffffffffffffffffffffffffffffffffffffff16611cf0565b9050919050565b600080611cfe8686866106cb565b90506000811115611db357600260009054906101000a900473ffffffffffffffffffffffffffffffffffffffff1673ffffffffffffffffffffffffffffffffffffffff1663a9059cbb84836040518363ffffffff1660e01b8152600401611d6692919061245b565b6020604051808303816000875af1158015611d85573d6000803e3d6000fd5b505050506040513d601f19601f82011682018060405250810190611da991906124b0565b5080915050611db9565b60009150505b949350505050565b604051806060016040528060008152602001600063ffffffff168152602001600063ffffffff1681525090565b600073ffffffffffffffffffffffffffffffffffffffff82169050919050565b6000611e1982611dee565b9050919050565b611e2981611e0e565b82525050565b6000602082019050611e446000830184611e20565b92915050565b600080fd5b6000819050919050565b611e6281611e4f565b8114611e6d57600080fd5b50565b600081359050611e7f81611e59565b92915050565b600080600060608486031215611e9e57611e9d611e4a565b5b6000611eac86828701611e70565b9350506020611ebd86828701611e70565b9250506040611ece86828701611e70565b9150509250925092565b611ee181611e4f565b82525050565b6000602082019050611efc6000830184611ed8565b92915050565b611f0b81611e0e565b8114611f1657600080fd5b50565b600081359050611f2881611f02565b92915050565b600060208284031215611f4457611f43611e4a565b5b6000611f5284828501611f19565b91505092915050565b600060208284031215611f7157611f70611e4a565b5b6000611f7f84828501611e70565b91505092915050565b60008115159050919050565b611f9d81611f88565b82525050565b6000602082019050611fb86000830184611f94565b92915050565b611fc781611e4f565b82525050565b600063ffffffff82169050919050565b611fe681611fcd565b82525050565b6060820160008201516120026000850182611fbe565b5060208201516120156020850182611fdd565b5060408201516120286040850182611fdd565b50505050565b60006060820190506120436000830184611fec565b92915050565b600060408201905061205e6000830185611ed8565b61206b6020830184611ed8565b9392505050565b600061207d82611dee565b9050919050565b61208d81612072565b811461209857600080fd5b50565b6000813590506120aa81612084565b92915050565b6000602082840312156120c6576120c5611e4a565b5b60006120d48482850161209b565b91505092915050565b7f4e487b7100000000000000000000000000000000000000000000000000000000600052601160045260246000fd5b600061211782611e4f565b915061212283611e4f565b925082820261213081611e4f565b91508282048414831517612147576121466120dd565b5b5092915050565b7f4e487b7100000000000000000000000000000000000000000000000000000000600052601260045260246000fd5b600061218882611e4f565b915061219383611e4f565b9250826121a3576121a261214e565b5b828204905092915050565b600082825260208201905092915050565b7f21415554484f52495a4544000000000000000000000000000000000000000000600082015250565b60006121f5600b836121ae565b9150612200826121bf565b602082019050919050565b60006020820190508181036000830152612224816121e8565b9050919050565b7f43616e6e6f74206368616e6765207374616b696e6720746f6b656e207768696c60008201527f652070656f706c6520617265207374696c6c207374616b696e672e0000000000602082015250565b6000612287603b836121ae565b91506122928261222b565b604082019050919050565b600060208201905081810360008301526122b68161227a565b9050919050565b60006122c882611e4f565b91506122d383611e4f565b92508282019050808211156122eb576122ea6120dd565b5b92915050565b7f546f74616c206665652068617320746f206265206c6f776572207468616e203360008201527f332e3333252e0000000000000000000000000000000000000000000000000000602082015250565b600061234d6026836121ae565b9150612358826122f1565b604082019050919050565b6000602082019050818103600083015261237c81612340565b9050919050565b7f416d6f756e74206e6565647320746f20626520626967676572207468616e2030600082015250565b60006123b96020836121ae565b91506123c482612383565b602082019050919050565b600060208201905081810360008301526123e8816123ac565b9050919050565b7f596f7520617265206e6f74207374616b696e672e000000000000000000000000600082015250565b60006124256014836121ae565b9150612430826123ef565b602082019050919050565b6000602082019050818103600083015261245481612418565b9050919050565b60006040820190506124706000830185611e20565b61247d6020830184611ed8565b9392505050565b61248d81611f88565b811461249857600080fd5b50565b6000815190506124aa81612484565b92915050565b6000602082840312156124c6576124c5611e4a565b5b60006124d48482850161249b565b91505092915050565b7f55736572206973206e6f74207374616b696e672e000000000000000000000000600082015250565b60006125136014836121ae565b915061251e826124dd565b602082019050919050565b6000602082019050818103600083015261254281612506565b9050919050565b60008151905061255881611e59565b92915050565b60006020828403121561257457612573611e4a565b5b600061258284828501612549565b91505092915050565b600061259682611e4f565b91506125a183611e4f565b92508282039050818111156125b9576125b86120dd565b5b92915050565b60006060820190506125d46000830186611e20565b6125e16020830185611e20565b6125ee6040830184611ed8565b949350505050565b60008160011c9050919050565b6000808291508390505b600185111561264d57808604811115612629576126286120dd565b5b60018516156126385780820291505b8081029050612646856125f6565b945061260d565b94509492505050565b6000826126665760019050612722565b816126745760009050612722565b816001811461268a5760028114612694576126c3565b6001915050612722565b60ff8411156126a6576126a56120dd565b5b8360020a9150848211156126bd576126bc6120dd565b5b50612722565b5060208310610133831016604e8410600b84101617156126f85782820a9050838111156126f3576126f26120dd565b5b612722565b6127058484846001612603565b9250905081840481111561271c5761271b6120dd565b5b81810290505b9392505050565b600061273482611e4f565b915061273f83611e4f565b925061276c7fffffffffffffffffffffffffffffffffffffffffffffffffffffffffffffffff8484612656565b905092915050565b600061277f82611e4f565b915061278a83611e4f565b92508261279a5761279961214e565b5b828206905092915050565b7f214f574e45520000000000000000000000000000000000000000000000000000600082015250565b60006127db6006836121ae565b91506127e6826127a5565b602082019050919050565b6000602082019050818103600083015261280a816127ce565b9050919050565b6000819050919050565b600061283661283161282c84611dee565b612811565b611dee565b9050919050565b60006128488261281b565b9050919050565b600061285a8261283d565b9050919050565b61286a8161284f565b82525050565b60006020820190506128856000830184612861565b92915050565b7f4e6f7420656e6f75676820746f6b656e73207374616b65642e00000000000000600082015250565b60006128c16019836121ae565b91506128cc8261288b565b602082019050919050565b600060208201905081810360008301526128f0816128b4565b905091905056fea2646970667358221220e0ccf561a4db028992e8e1214f1a7809e3d9dea7a77168e258f692089f6812b464736f6c63430008110033",
  "linkReferences": {},
  "deployedLinkReferences": {}
}